:020000040800F2
:100000000050002021020008270200082B020008EF
:100010009D020008A1020008E9020008000000009B
:100020000000000000000000000000003103000894
:10003000350300080000000039030008D912000849
:100040004D0300084D0300084D0300084D03000850
:100050004D0300084D0300084D0300084D03000840
:100060004D0300084D0300084D0300084D03000830
:100070004D0300084D0300084D0300084D03000820
:100080004D0300084D0300084D0300084D03000810
:100090004D0300084D0300084D0300084D03000800
:1000A0004D0300084D0300084D0300084D030008F0
:1000B000691300084D0300084D0300084D030008B4
:1000C0004D0300084D0300084D0300084D030008D0
:1000D0004D030008891300084D0300084D03000874
:1000E000BD1200084D0300084D0300080000000089
:1000F0000000000000000000000000000000000000
:1001000000000000000000005FF808F100B583B0B7
:1001100000F00EFF304B314A1360314A1360314B0F
:10012000314A03E052F8041B43F8041B2F498B4269
:10013000F8D32A4B1A682E4B9A4200D0FEE7284B80
:100140001A682C4B9A42F9D1234B2B4A13602B4A45
:1001500013602B4B02E0002243F8042B294A934200
:10016000F9D3254B1B6813B9244B1B6803B1FEE779
:1001700000F0EAFE694601A800F06AFE224C234B1B
:10018000E41AA410002504E0204B53F825309847CA
:100190000135AC42F8DC1E4C1E4BE41AA4100025BD
:1001A00004E01C4B53F8253098470135AC42F8DC8D
:1001B0000099019801F0A2F80546174C174BE41A74
:1001C000A41004E0013C154B53F824309847002C50
:1001D000F8DC284600F00EFEBABADECA00000020A5
:1001E000840000200000002040200008880000203B
:1001F0007856341232547698880000205C01002032
:1002000088000020600100207803000878030008BF
:1002100078030008780300087803000878030008D2
:1002200008B5FFF773FF00BEFEE71EF0040F0CBF1A
:10023000EFF30880EFF309807146414A10472DE93A
:10024000F04182B004460D46124B5F6BD3F8388004
:100250009E6A1B6B13F0020F03D00E4BDB6A002B60
:100260000BDB0D4800F006FE009543463A4631464A
:10027000204600F06DFE00BEFEE74BF6AB6100F0DD
:10028000E1FE0028EDD0034B4FF00042DA6202B0ED
:10029000BDE8F08100ED00E0E01F000800BEFEE7D1
:1002A0001EF0040F0CBFEFF30880EFF309807146D6
:1002B000244A10472DE9F04182B004460D46084B10
:1002C0005F6BD3F838809E6A064800F0D3FD009536
:1002D00043463A463146204600F03AFE00BEFEE76D
:1002E00000ED00E0F01F00081EF0040F0CBFEFF35C
:1002F0000880EFF309807146134A10472DE9F04159
:1003000082B004460D46084B5F6BD3F838809E6A76
:10031000064800F0AFFD009543463A463146204678
:1003200000F016FE00BEFEE700ED00E0FC1F000836
:1003300000BEFEE700BEFEE700BEFEE7704700001D
:100340003F020008B5020008FD02000800BEFEE7FB
:100350004020000800000020880000204020000805
:100360000000000000000000880000206001002064
:08037000000000000000000085
:1003780010B50446B0F5E06F0BD0B0F5C06F08D0EB
:10038800B0F5A06F05D0B0F5806F02D0B0F5407F12
:1003980006D144F0BF6444F40034044BDC6010BD63
:1003A8006321034800F058FDF3E700BF00ED00E0CB
:1003B800601D000810B50446C378012B26D8637861
:1003C8000F2B28D8A3780F2B2AD8E3786BB31C4BB4
:1003D800DA68D243C2F30222C2F104000F2323FADF
:1003E80002F261788140A37813400B431B01227805
:1003F800DBB214490A4482F80033237803F01F0063
:100408005B090122824041F8232010BD75210E4866
:1004180000F022FDD3E776210B4800F01DFDD1E75F
:100428007721094800F018FDCFE7237803F01F0172
:100438005B0901228A402033024941F82320E4E77E
:1004480000ED00E000E100E0601D000810B5044682
:1004580003790BB1042B3FD16379082B03D00C2B04
:1004680001D0102B3DD12268130D1B0503B91AB911
:100478006C212B4800F0F0FCA379012B36D8A37926
:10048800002B42D0274B1A68216822EA01021A6021
:100498005A68216822EA01025A60227902F18042F0
:1004A80002F5823211682068014311609A68216858
:1004B80022EA01029A60DA68216822EA0102DA6017
:1004C8006379102B17D003F1804303F582331A6840
:1004D80021680A431A6022E06A21114800F0BCFC36
:1004E800BAE76B210E4800F0B7FCBCE76D210C4859
:1004F80000F0B2FCC3E70B4B9A6821680A439A6084
:10050800DA6821680A43DA6009E0237903F1804355
:1005180003F582331A68216822EA01021A6010BDC5
:10052800881D00080004014010B50446431E012B35
:100538002FD904282DD008282BD0102829D02028DE
:1005480027D0402825D0802823D0B0F5807F20D020
:10055800B0F5007F1DD0B0F5806F1AD0B0F5006FF0
:1005680017D0B0F5805F14D0B0F5005F11D0B0F5AA
:10057800804F0ED0B0F5004F0BD0B0F5803F08D0BB
:10058800B0F5003F05D0B0F5802F02D0B0F5002FB0
:1005980008D1094A136823405269224207D043B957
:1005A800002005E0E521054800F056FCF1E70020B1
:1005B80010BD0120FCE700BF00040140881D0008B1
:1005C80010B50446030D1B0503B918B9FC210348EF
:1005D80000F042FC024B5C6110BD00BF881D0008A2
:1005E80000040140F8B505460C46494B98421BD01B
:1005F80003F58063984217D003F58063984213D0BF
:1006080003F5806398420FD003F5806398420BD0BE
:1006180003F58063984207D003F58063984203D0BE
:10062800B2213C4800F018FCE3786BB1042B0BD0E6
:10063800282B09D0482B07D0142B05D0102B03D01A
:100648001C2B01D0182B14D12388BBB1E37803F0FD
:100658000F06304613F0100F06D0A378013BDBB22B
:10066800022B10D8A078304323785BB32E68002380
:1006780010E0B321274800F0EFFBE5E7B421254857
:1006880000F0EAFBE2E7BB21224800F0E5FBE9E7DE
:100698006A610133072B14D801229A40218832EA73
:1006A8000101F6D199000F278F4026EA070600FAC4
:1006B80001F10E43E1782829EAD04829E9D12A61D5
:1006C800E7E72E602388FF2B20D96E68002302E01D
:1006D8006A6115E00133072B17D803F108010122DD
:1006E8008A40218832EA0101F4D199000F278F400E
:1006F80026EA070600FA01F10E43E1782829E7D037
:10070800E1784829E6D12A61E4E76E60F8BD00BFC8
:1007180000080140BC1D000870B505460C460628B7
:1007280017D80F2C1BD804F0030080000F2202FA00
:1007380000F6A1080D4B023153F8212022EA0602E7
:1007480043F8212053F821208540154343F82150D0
:1007580070BD40F26521064800F07EFBE1E740F2FB
:100768006621034800F078FBDDE700BF0000014088
:10077800BC1D000838B504460D460E4B034003B9AE
:1007880020B940F24A410C4800F066FB012D05D81B
:1007980055B10A4B986904439C6138BD40F24B41FE
:1007A800054800F059FBF3E7044B986920EA040474
:1007B8009C61F2E70200C0FFF01D00080010024033
:1007C80038B504460D460E4B184200D120B940F208
:1007D80069410C4800F040FB012D05D855B10A4B82
:1007E800D8690443DC6138BD40F26A41054800F02D
:1007F80033FBF3E7044BD86920EA0404DC61F2E731
:1008080000360181F01D00080010024038B504468A
:100818000D46534B984242D0B0F1804F3FD0A3F5DC
:10082800943398423BD003F58063984237D003F560
:100838008063984233D003F5806398422FD003F544
:10084800806398422BD003F59033984227D003F564
:10085800C053984223D003F5806398421FD003F514
:10086800806398421BD0A3F59E33984217D003F5B6
:100878008063984213D003F5806398420FD003F544
:10088800903398420BD003F58063984207D003F564
:100898008063984203D0E721324800F0DDFA6B8884
:1008A8003BB1102B05D0202B03D0402B01D0602B5F
:1008B8004CD1EB882BB1B3F5807F02D0B3F5007F24
:1008C80049D123889BB2264A944212D002F500628D
:1008D80094420ED0B4F1804F0BD0A2F598329442D6
:1008E80007D002F58062944203D002F580629442F8
:1008F80003D123F070036A8813431B4A944208D03B
:1009080002F58062944204D023F440739BB2EA88D3
:1009180013432380AB88A3852B882385104B9C42E7
:100928000FD003F500639C420BD003F540639C4253
:1009380007D003F580639C4203D003F580639C4293
:1009480001D12B7A23860123A38238BDE8210548EB
:1009580000F082FAADE7E921024800F07DFAB0E73D
:10096800002C0140201E00080010004038B5044645
:100978000D462E4B984243D0B0F1804F40D0A3F59E
:10098800943398423CD003F58063984238D003F5FD
:100998008063984234D003F58063984230D003F5E1
:1009A800806398422CD003F59033984228D003F501
:1009B800C053984224D003F58063984220D003F5B1
:1009C800806398421CD0A3F59E33984218D003F553
:1009D8008063984214D003F58063984210D003F5E1
:1009E800903398420CD003F58063984208D003F501
:1009F8008063984204D040F229310D4800F02CFA67
:100A0800012D06D85DB123889BB243F001032380F2
:100A180038BD40F22A31064800F01EFAF2E7238872
:100A28009BB223F001039BB22380F1E7002C014025
:100A3800201E000870B505460C461646314B9842F4
:100A480043D0B0F1804F40D0A3F5943398423CD0C6
:100A580003F58063984238D003F58063984234D018
:100A680003F58063984230D003F5806398422CD018
:100A780003F59033984228D003F5C053984224D008
:100A880003F58063984220D003F5806398421CD018
:100A9800A3F59E33984218D003F58063984214D08A
:100AA80003F58063984210D003F5903398420CD038
:100AB80003F58063984208D003F58063984204D018
:100AC80040F26B31104800F0C7F914F47F4F00D1A1
:100AD80024B94FF45B710C4800F0BEF9012E05D81B
:100AE80056B1A98989B20C43AC8170BD40F26D3111
:100AF800054800F0B1F9F3E7AB89E443A4B21C4020
:100B0800AC81F2E7002C0140201E000838B50446ED
:100B18000D46344B984243D0B0F1804F40D0A3F5F6
:100B2800943398423CD003F58063984238D003F55B
:100B38008063984234D003F58063984230D003F53F
:100B4800806398422CD003F59033984228D003F55F
:100B5800C053984224D003F58063984220D003F50F
:100B6800806398421CD0A3F59E33984218D003F5B1
:100B78008063984214D003F58063984210D003F53F
:100B8800903398420CD003F58063984208D003F55F
:100B98008063984204D040F65821134800F05CF96D
:100BA8006B1E9BB2012B0BD9042D09D0082D07D041
:100BB800102D05D0202D03D0402D01D0802D07D138
:100BC800228AA3892B40154208D04BB9002006E0A1
:100BD80040F65921044800F03FF9F1E7002038BDFC
:100BE8000120FCE7002C0140201E000838B505460E
:100BF8000C462A4B984243D0B0F1804F40D0A3F521
:100C0800943398423CD003F58063984238D003F57A
:100C18008063984234D003F58063984230D003F55E
:100C2800806398422CD003F59033984228D003F57E
:100C3800C053984224D003F58063984220D003F52E
:100C4800806398421CD0A3F59E33984218D003F5D0
:100C58008063984214D003F58063984210D003F55E
:100C6800903398420CD003F58063984208D003F57E
:100C78008063984204D040F68221094800F0ECF8DD
:100C880014F47F4F00D124B940F68321044800F0C2
:100C9800E3F8E443A4B22C8238BD00BF002C014025
:100CA800201E000810B504460D4B984214D0A3F539
:100CB8007443984210D003F5806398420CD003F532
:100CC8008063984208D003F58063984204D04FF4BB
:100CD8001C71044800F0C0F8A088C0F3080010BDDB
:100CE80000380140501E000838B505460C463D4BFB
:100CF800984214D0A3F57443984210D003F580634A
:100D080098420CD003F58063984208D003F58063BD
:100D1800984204D040F2D931334800F09DF8282C8D
:100D280020D040F227739C421CD040F226639C429C
:100D380018D040F225539C4214D040F224439C42E0
:100D480010D040F646039C420CD040F66A139C42F1
:100D580008D0B4F5587F05D0B4F5187F02D0B4F5A3
:100D6800B07F1BD140F66A139C421DD0C4F34212D7
:100D780004F01F0101238B40012A26D0022A28D023
:100D8800AA8A92B21340240A012202FA04F42A8899
:100D980092B222400BB312BB00201FE040F2DA31BE
:100DA800114800F059F8DDE70E4B9D42DED0A3F55F
:100DB80074439D42DAD003F580639D42D6D040F259
:100DC800DE31094800F048F8D0E7AA8992B213400A
:100DD800D9E72A8A92B21340D5E7002038BD01200E
:100DE800FCE700BF00380140501E0008FEE7000085
:100DF80008B5034800F054F80120FFF7F7FF00BFDB
:100E0800841E000808B503460C4A12685AB10B4AFA
:100E18001068033323F003030344094A934206D8B6
:100E2800064A136008BD054A06491160EFE700F05D
:100E380031FB0C2303604FF0FF30F3E78C000020F8
:100E4800004C00206001002001230360014B0B606F
:100E5800704700BF0400002008B50A460146024852
:100E680000F004F8FFF7C4FF981E00080FB400B59F
:100E780083B004AB53F8042B01938021074800F09A
:100E880043FB002804DC03B05DF804EB04B07047B2
:100E98000146024800F044F8F5E700BF940000203E
:100EA80010B5044600F0FCFA0146204600F038F878
:100EB8000121024800F034F810BD00BF5C1F000893
:100EC8002DE9F04385B004460F46435633BB04254D
:100ED80028462146ABBE0446384605B0BDE8F08337
:100EE80014F9010B04AA1A4402F8100C0133AB429E
:100EF800F6D304AA1344002203F8102C4FF0040878
:100F0800E94640464946ABBE8046761B002EE3D0F4
:100F18003546102E28BF10250023E8E70E46F5E7D2
:100F280008B5FFF7CDFF08BD08B500F0FDF8024A87
:100F3800024B9A6008BD00BF0000000800ED00E009
:100F480008B500F019F908BDF8B504460D4617466E
:100F58001E462748FFF78AFF21682648FFF786FFC5
:100F680061682548FFF782FFA1682448FFF77EFFE4
:100F7800E1682348FFF77AFF21692248FFF776FFE7
:100F880061692148FFF772FFA1692048FFF76EFFEA
:100F9800E1691F48FFF76AFF1E48FFF767FF294608
:100FA8001D48FFF763FF1D4CE16A1D48FFF75EFF10
:100FB800216B1C48FFF75AFFE16B1B48FFF756FFF0
:100FC80015F0800F0AD115F4004F0CD11748FFF720
:100FD8004DFF06991648FFF749FFF8BD39461548F1
:100FE800FFF744FFEFE731461348FFF73FFFEDE710
:100FF800C41E0008D41E0008E41E0008F41E0008E1
:10100800041F0008141F0008241F0008341F0008CC
:10101800441F0008541F0008601F000800ED00E08E
:10102800701F0008801F0008901F0008C01F0008DC
:10103800C81F0008A01F0008B01F000883691A888D
:101048008A4201D0002070470268033A012A01D978
:1010580000207047023383610120704782B000236B
:10106800019300932C4A136843F4803313602A4B8E
:101078001B6803F400330093019B01330193009B29
:101088001BB9019BB3F5A06FF1D1234B1B6813F477
:10109800003F06D001230093009B012B04D002B02F
:1010A800704700230093F7E71C4B1A6842F01002C0
:1010B8001A601A6822F003021A601A6842F00202E3
:1010C8001A60A3F580535A685A605A685A605A6879
:1010D80042F480625A605A6822F47C125A605A6854
:1010E80042F4E8125A601A6842F080721A600A4B99
:1010F8001B6813F0007FFAD0074B5A6822F00302EE
:101108005A605A6842F002025A60034B5B6803F067
:101118000C03082BF9D1C2E700100240002002405E
:1011280008B5FFF79BFF08BD08B5104B1A6842F0D9
:1011380001021A6059680E4A0A405A601A6822F079
:10114800847222F480321A601A6822F480221A60AB
:101158005A6822F4FE025A604FF41F029A60FFF7A1
:10116800DFFF044B4FF000629A6008BD0010024098
:101178000000FFF800ED00E01F4B5B6803F00C0374
:10118800042B15D0082B17D01BB11C4B1C4A1A6016
:1011980002E01A4B1A4A1A60174B5B68C3F3031331
:1011A800184AD35CDAB215490B68D3400B60704714
:1011B800124B134A1A60EFE70F4A53685268C3F399
:1011C8008343023312F4803F05D10F4A02FB03F335
:1011D8000A4A1360E0E7084A526812F4003F05D053
:1011E800094A02FB03F3054A1360D5E7044A02FBE8
:1011F80003F3024A1360CFE7001002401C000020EE
:1012080000127A000C00002000093D0008B50121F9
:101218000420FFF7AFFA08BD00B583B048238DF866
:1012280007304FF40043ADF8043003238DF806303F
:1012380001A90548FFF7D6F905210020FFF76CFA48
:1012480003B05DF804FB00BF0008014000B583B09F
:101258004FF40043009300238DF804300C238DF8DD
:10126800053001238DF806306846FFF7EFF803B024
:101278005DF804FB00B583B028238DF804304FF4E3
:10128800A060FFF775F801238DF805308DF806305A
:101298008DF8073001A8FFF78DF803B05DF804FB5F
:1012A80008B5FFF7B3FFFFF7B7FFFFF7CFFFFFF76B
:1012B800E1FF08BD08B54FF40040FFF735F90128F4
:1012C80000D008BD4FF40040FFF77AF9F9E70000B5
:1012D800034B1B6813B1013B014A1360704700BF01
:1012E80018010020024B18600028FDD0704700BF8D
:1012F8001801002008B5FFF7D3FF00F081F800F0CF
:10130800B9F8124B4AF6AA221A604CF6CC421A6077
:101318000F4B1B680F4AA2FB03239B09013BB3F148
:10132800807F09D20C4A53600C4BF02183F82310BC
:1013380000239360072313604FF47A70FFF7D2FFFE
:10134800024B4AF6AA221A60F6E700BF00300040B6
:101358001C000020D34D621010E000E000ED00E01A
:1013680008B501214FF08040FFF7D0FB012800D0DD
:1013780008BD01214FF08040FFF738FCF8E7000076
:1013880010B540F225511B48FFF7AEFC012800D0EC
:1013980010BD194B1C78132C07D9174B1B78142B2D
:1013A800F6D10023144A137020E01248FFF77AFCA4
:1013B800124A22F81400104B1B7832F813200D2A19
:1013C80003D001330C4A1370E7E700230A4A13706D
:1013D80004E00A4A002122F813100133132BF8DD28
:1013E800DBE7064A002122F813100133132BF8DD3E
:1013F800CEE700BF0038014014010020280100207A
:1014080010B584B001210846FFF7DAF941F63F73B9
:10141800ADF8043042F20F73ADF808300024ADF88F
:101428000640ADF80A4001A94FF08040FFF7EEF9F9
:1014380001214FF08040FFF7D9FB012211464FF000
:101448008040FFF7F7FA01214FF08040FFF78EFA4E
:101458001C238DF800304FF4A060FEF789FF0223AB
:101468008DF801308DF802406846FEF7A3FF04B0FE
:1014780010BD0000064B45F255521A60C8225A604A
:101488004FF49C729A604AF6AA221A60704700BF0D
:1014980000300040014B1868704700BF2000002052
:1014A800034613F8012B002AFBD1181A013870479C
:1014B80030B5141E05469BB0184605DA8B234FF04D
:1014C800FF302B601BB030BD4FF40273ADF80C3009
:1014D8000CBF234604F1FF33029305934FF6FF73C5
:1014E800024600910491ADF80E3069461E9B2846CD
:1014F80000F074F8431CBCBF8B232B60002CE1D098
:101508000022009B1A70DDE707B5009313460A46D0
:10151800014603480068FFF7CBFF03B05DF804FB02
:10152800200000202DE9F0478E6882469E420C4636
:1015380090461F4638D88A8912F4906F32D02568B1
:1015480009690133A5EB010965694B4405EB4505BC
:1015580005EBD5756D109D4238BF1D46530531D535
:10156800294600F053FB064650B90C234FF0FF30D4
:10157800CAF80030A38943F04003A381BDE8F0878F
:101588004A46216900F0CEFAA38923F4906343F018
:101598008003A38126614E4426603E466561A5EB23
:1015A8000905A560BE4200D93E463246414620683C
:1015B80000F0C6FAA36822689B1B32440020A3608F
:1015C8002260DBE72A4600F07BFB06460028E1D1D3
:1015D8005046216900F0CEFAC7E700002DE9F04F28
:1015E80098468B8907461B060D4614469DB00ED5B6
:1015F8000B6963B9402100F009FB2860286120B914
:101608000C233B604FF0FF30D1E040236B61002397
:10161800099320238DF8293030234FF00109CDF8A4
:101628000C80DFF8A4818DF82A3023469A4613F8F7
:10163800012B0AB1252AF9D1BAEB040B0BD05B4672
:10164800224629463846FFF76DFF013000F0AA8090
:10165800099A5A4409929AF80030002B00F0A280A7
:1016680000234FF0FF32CDE905230AF1010A049364
:1016780007938DF853301A935446052214F8011B2A
:10168800514800F041FA049AD8B9D00644BF202343
:101698008DF85330110744BF2B238DF853309AF837
:1016A80000302A2B15D0544600204FF00A0C079A18
:1016B800214611F8013B303B092B4ED9B0B10792B6
:1016C80014E0A0EB080309FA03F31343A2460493BA
:1016D800D2E7039B191D1B680391002BBBBF5B421C
:1016E80042F0020207930793B8BF049223782E2B87
:1016F8000CD163782A2B35D1039B02341A1D1B6841
:101708000392002BB8BF4FF0FF330593DFF8C8A052
:1017180003225046217800F0F7F940B14023A0EBAE
:101728000A0003FA00F0049B01340343049314F8FD
:10173800011B062225488DF8281000F0E5F900283D
:1017480038D0234B1BBB039B073323F00703083315
:101758000393099B3344099367E70C4601200CFB6C
:101768000232A5E700234FF00A0C1946013405930D
:10177800204610F8012B303A092A03D9002BC5D08E
:101788000591C3E7044601230CFB0121F0E703ABF5
:1017980000932A4638460F4B04A9AFF30080421C39
:1017A8000646D6D1AB895B063FF52CAF09981DB02C
:1017B800BDE8F08F03AB00932A463846054B04A9D1
:1017C80000F07CF8EBE700BF0A20000814200008AE
:1017D800000000002D150008102000082DE9F04732
:1017E800164699468A680B6907469342B8BF13465E
:1017F800336091F843200C46DDF820800AB10133AC
:1018080033602368990642BF336802333360256822
:1018180015F0060506D104F1190AE36832689B1A27
:10182800AB4228DC94F84320131E226818BF01231A
:1018380092062DD44946384604F14302C047013088
:1018480020D02368E56803F00603042B18BF0025A1
:1018580032684FF00006A36808BFAD1A226908BFB6
:1018680025EAE5759342C4BF9B1AED181A34B542B0
:101878001AD1002008E00123524649463846C0479D
:10188800013003D14FF0FF30BDE8F0870135C4E7E0
:101898003020E11881F843005A1C94F8451022447E
:1018A800023382F84310C5E70123224649463846E9
:1018B800C0470130E6D00136D9E700002DE9FF47DF
:1018C8000C46277E9146782F80469A460C9904F15B
:1018D800430207D8622F0AD8002F00F0D980582F6A
:1018E80000F0A48004F1420684F842703AE0A7F1BF
:1018F8006303152BF6D801A050F823F05D190008F2
:1019080071190008ED180008ED180008ED18000816
:10191800ED18000871190008ED180008ED18000806
:10192800ED180008ED1800087F1A0008A119000832
:10193800611A0008ED180008ED180008A11A00083F
:10194800ED180008A1190008ED180008ED180008A6
:10195800691A00080B6804F142061A1D1B680A6020
:1019680084F842300123A4E0256808682E0600F1B7
:1019780004030AD505680B60002D03DA2D236D4298
:1019880084F843300A235E4819E015F0400F0568D3
:101998000B6018BF2DB2EFE70B682568181D0860AB
:1019A800280601D51D6802E06906FBD51D886F2F42
:1019B8000CBF08230A235248002184F843106668A4
:1019C800002EA8BF2168A660A4BF21F004012160F1
:1019D8000DB9002E4DD01646B5FBF3F103FB115798
:1019E800C75D06F8017D2F46BB420D46F4D9082B8A
:1019F8000BD12368DF0708D5236961689942DEBFE8
:101A0800302306F8013C06F1FF36921B22614B4653
:101A180021464046CDF800A003AAFFF7DFFE0130BB
:101A28004CD14FF0FF3004B0BDE8F087344884F85B
:101A380045700E68236856F8045B1F060E6014D5BF
:101A4800D90744BF43F0200323601DB9236823F05E
:101A5800200323601023AFE7236843F020032360AB
:101A68007823284884F84530E3E75E0648BFADB2DE
:101A7800E6E71646BBE70B6826681D1D60690D6022
:101A880035061B6801D5186002E07106FBD5188081
:101A9800002316462361BAE70B681A1D0A601E6800
:101AA80000213046626800F02FF808B1801B6060A2
:101AB80063682361002384F84330A8E73246494627
:101AC80040462369D0470130ABD023689B0713D425
:101AD800E068039B9842B8BF1846A4E70123324642
:101AE80049464046D04701309BD00135E368039909
:101AF8005B1AAB42F2DCEBE7002504F11906F5E7C7
:101B08001B2000082C200008034610B5C9B2024467
:101B18009342184601D1002003E0047801338C4237
:101B2800F6D110BD0A44914200F1FF3300D170474D
:101B380010B511F8014B914203F8014FF9D110BDCE
:101B4800884210B501EB020402D98442234607D823
:101B5800431EA14208D011F8012B03F8012FF8E722
:101B6800014602448A4200D110BD13F8014D02F823
:101B7800014DF7E738B50546002943D051F8043C34
:101B88000C1F002BB8BFE41800F0D0F81E4A1368E9
:101B9800104633B9636014602846BDE8384000F049
:101BA800CBB8A3420AD921686218934201BF1A68C8
:101BB8005B685218226063600460EDE71A465B6850
:101BC8000BB1A342FAD911685018A0420BD1206872
:101BD8000144501883421160DED118685B680144E3
:101BE80011605360D8E702D90C232B60D4E7206832
:101BF80021188B4201BF19685B680918216063606E
:101C08005460C9E738BD00BF1C010020F8B5CD1CE1
:101C180025F0030508350C2D38BF0C25002D064688
:101C280001DBA94203D90C2333600020F8BD00F082
:101C38007DF821490A6814469CB9204F3B6823B9AE
:101C48002146304600F062F838602946304600F0F8
:101C58005DF8431C23D10C233046336000F06CF848
:101C6800E3E723685B1B17D40B2B03D923601C44C1
:101C7800256004E06368A2420CBF0B6053603046E5
:101C880000F05AF804F10B00231D20F00700C21AD7
:101C9800CCD01B1AA350C9E722466468CCE7C41C01
:101CA80024F00304A042E3D0211A304600F02EF8B5
:101CB8000130DDD1CFE700BF1C010020200100204A
:101CC800F8B5074614460E4621B91146BDE8F84056
:101CD800FFF79CBF22B9FFF74DFF25462846F8BD00
:101CE80000F030F8A0420FD221463846FFF78EFFA9
:101CF80005460028F2D031462246FFF713FF314649
:101D08003846FFF737FFE9E73546E7E738B50023F8
:101D1800054D044608462B60FFF774F8431C02D1B2
:101D28002B6803B1236038BD24010020014800F06E
:101D380011B800BF54010020014800F00CB800BFE2
:101D48005401002051F8043C181F002BBCBF0B584D
:101D5800C0187047704770472E2E2F7379737465BB
:101D68006D2F7372632F73746D333266312D7374F4
:101D7800647065726970682F6D6973632E63000003
:101D88002E2E2F73797374656D2F7372632F73748E
:101D98006D333266312D7374647065726970682FA3
:101DA80073746D3332663130785F657874692E6389
:101DB800000000002E2E2F73797374656D2F7372D7
:101DC800632F73746D333266312D7374647065726A
:101DD8006970682F73746D3332663130785F67705D
:101DE800696F2E63000000002E2E2F7379737465BF
:101DF8006D2F7372632F73746D333266312D737464
:101E0800647065726970682F73746D33326631302F
:101E1800785F7263632E63002E2E2F737973746557
:101E28006D2F7372632F73746D333266312D737433
:101E3800647065726970682F73746D3332663130FF
:101E4800785F74696D2E63002E2E2F737973746515
:101E58006D2F7372632F73746D333266312D737403
:101E6800647065726970682F73746D3332663130CF
:101E7800785F75736172742E6300000061626F721F
:101E88007428292C2065786974696E672E2E2E00B7
:101E98006173736572745F706172616D2829206661
:101EA80061696C65643A2066696C65202225732235
:101EB8002C206C696E652025640A000053746163E8
:101EC8006B206672616D653A0A000000205230206E
:101ED8003D2020253038580A0000000020523120CB
:101EE8003D2020253038580A0000000020523220BA
:101EF8003D2020253038580A0000000020523320A9
:101F08003D2020253038580A000000002052313288
:101F1800203D20253038580A00000000204C52206F
:101F28003D2020253038580A00000000205043206A
:101F38003D2020253038580A000000002050535218
:101F4800203D20253038580A000000004653522F03
:101F58004641523A0A0000002043465352203D2091
:101F680020253038580A00002048465352203D208A
:101F780020253038580A00002044465352203D207E
:101F880020253038580A00002041465352203D2071
:101F980020253038580A0000204D4D464152203D3A
:101FA80020253038580A00002042464152203D2062
:101FB80020253038580A00004D6973630A00000074
:101FC800204C522F4558435F52455455524E3D20A0
:101FD800253038580A0000005B4861726446617514
:101FE8006C745D0A000000005B4275734661756C95
:101FF800745D0A005B55736167654661756C745D55
:102008000A00232D302B2000686C4C00656667455C
:102018004647003031323334353637383941424358
:102028004445460030313233343536373839616209
:05203800636465660011
:1020400078563412900000200000000000000000CC
:1020500000000000010203040607080900A24A0468
:10206000240000200000000000000000000000002C
:102070000000000000000000000000000000000060
:102080000000000000000000000000000000000050
:102090000000000000000000000000000000000040
:1020A0000000000000000000000000000000000030
:1020B0000000000000000000000000000000000020
:0820C000000000003254769884
:040000050800010DE1
:00000001FF
